:10000000C247053121000000000400000201BB329C
:100010000001000B3200010013320001001B32000E
:10002000010023320001002B3200010033320001B5
:10003000003B3200030043023F000001004B32004E
:10004000030053023F000001005B320001006332F5
:100050000003006B0208060003007302081E000381
:10006000007B021C15000300830224830003008B25
:1000700002086B000300930208B60003009B021CF9
:1000800012000300A3022516000300AB022517008F
:100090000300B3022518000300BB02251B00030068
:1000A000C3022485000300CB02249F000300D30277
:1000B00024BD000300DB0224BE000300E3021FF6A0
:1000C000000300EB0226E6000300F3021C1300030A
:1000D00000FB021C1400030103021FF50003010BC7
:1000E000021FF700030113021FF80003011B022681
:1000F00093000301230225140003012B022519009C
:1001000003013302251C0003013B02251E000301ED
:10011000430225150003014B02251A000301530277
:10012000251D0003015B02251F00030163022692C7
:100130000003016B02250C0003017302250E00036E
:10014000017B022510000301830225120003018BAD
:1001500002250D0003019302250F0003019B0225D8
:1001600011000301A3022513000301AB02090103DF
:10017000FF01B302248412037780FE75816E12267C
:10018000E7E58260030201B679B6E94400601B7AB4
:10019000019026EB786C7592E0E493F2A308B80026
:1001A000020592D9F4DAF27592FFE478FFF6D8FDF1
:1001B0007800E84400600A79007592E0E4F309D819
:1001C000FC786CE84400600C790190E000E4F0A356
:1001D000D8FCD9FA751400C2017524007525007584
:1001E000260075600075620075630075641C756596
:1001F00039756626756739E4F568F5690201B675E3
:100200005B00755CE0755D00755700755840755969
:1002100001E4F55A758251121F9090E000E0FABA9D
:10022000FF0475260222BAC2037526012275104CFE
:1002300075113B755B26755CE0755D007557D07573
:10024000583F755901E4F55A758251121F9090E09C
:1002500026E0FC6003BCFF0690E0267416F0755B98
:1002600024755CE0755D007557DE75583F75590261
:10027000E4F55A758251121F9090E026E0FC90E060
:1002800001F08C59755A00755B02755CE0755D0074
:100290007557E075583F758251121F9090E026E027
:1002A000FC042401FDE434E0FE90E024E08D828E25
:1002B00083F074022C2401FDE434E0FE90E025E09C
:1002C0008D828E83F074032CF51890E00175F00098
:1002D0001209BBE5828583F045F0705A90E026E074
:1002E000FC0CEC2C851082851183F07C007D009045
:1002F000E026E0FE7F00C3EC9EED64808FF063F0AB
:100300008095F0503174012CFEE43DFF8E00C8252D
:10031000E0C833F9E82510F8E93511F98C02EA0450
:100320002401F582E434E0F583E0FA88828983F0E1
:100330008E048F0580B92275230075B20075B588CB
:10034000D2B7C2B31204A812023F12056890E60B9E
:100350007403F090E67A7401F0C20212026D90E626
:1003600080E0440AF09005DC12252090E680E054FD
:10037000F7F090E601E04480F090E600E0FA74E7E0
:100380005A90E600F5F0741045F0F000000000907F
:10039000E601E04440F090E601E04420F0E500D2C0
:1003A000E890E668E04408F0E500D2EA90E668E00C
:1003B0004403F090E65CE04401F090E65CE0440227
:1003C000F090E65CE04420F090E65CE0FA4410F047
:1003D000D2AF30B40E7582001206C990E603740BDA
:1003E000F0800C75821F1206C990E603740FF0901E
:1003F000E618744CF00000000090E619E0FA54FE94
:10040000F00000000090E61AE0FA54FEF000000050
:100410000090E61B744CF000000000758201121A77
:10042000A2C2B7900064122520D2B79000641225B2
:10043000207525011206AE3002FD122001C2028095
:10044000F6858213753813753900753A40753D127B
:10045000753E00753F40753601E4F537753B01E4A4
:10046000F53C75822D021C1675120075820512046A
:100470008175120075820E12048175120075821149
:1004800012048175120075821412048175120075B0
:10049000821712048175120075821A120481751276
:1004A0000075821C12048175120075821D12048170
:1004B00075120075821E12048175120075821F125A
:1004C000048175120075822112048175121C7582D7
:1004D0000012048175121C75820112048175121CB0
:1004E00075820212048175121C75820302048174E4
:1004F00002B5260B75128E75820E120481800E7461
:1005000001B5260975129075821E120481227402AB
:10051000B5260B7512BF75821E12048180097512F3
:10052000B875820E120481227512FF7582061204BC
:10053000817512407582041204817512147582054A
:100540001204817512FF75820C1204817512787580
:10055000820A1204817512B875820B120481751219
:10056000FF75820F12048175124075820D1204818D
:10057000120503FF05B22F75124675821012048111
:1005800075123F758212120481751244758213121E
:10059000048175123F7582151204817512327582BD
:1005A0001612048175123F7582181204817512B2F9
:1005B00075821712048175128475821D12048112CE
:1005C000054E7402B526097512BF75821F1204818B
:1005D0007512A475822112048175120D7582621242
:1005E0000481751240758243120481751240758230
:1005F00044120481751240758245120481751200FF
:1006000075824712048175120F7582481204817534
:10061000120F75825012048175120F7582581204E0
:100620008175121F75824D12048175121F758255D6
:1006300012048175121F75825D12048175120C758A
:10064000824E12048175120C758256120481751245
:100650000C75825E12048175120075825F1204812E
:1006600075120075826012048175127075826102C4
:1006700004817512FF75820612048175124075821D
:1006800004120481751294758205020481AA828A7B
:100690001275824DC002120481D0028A12758255F1
:1006A000C002120481D0028A1275825D020481E5C3
:1006B00082FA7010AB6CAC6DAD6E8B828C838DF05A
:1006C000E4122486BA0111AA6CAB6DAC6E8A828BDF
:1006D000838CF0E51412248675820122E56C246C6B
:1006E000F582E434E0F583E090E621F0E56C2470D7
:1006F000F582E434E0F583E090E620F0856C149018
:10070000E6837412F0E0FA90E68374204AF090E6F3
:10071000837406F0E0FA90E68374204AF090E604D1
:100720007480F00000000090E6047402F000000005
:100730000090E6047404F00000000090E6047406E3
:10074000F00000000090E6047408F0000000009043
:10075000E604E4F00000000090E6917480F00000F0
:10076000000090E6917480F00000000090E6917423
:1007700080F00000000090E6917480F0000000001E
:1007800090E6997480F00000000090E6997480F083
:100790000000000090E6997480F00000000090E6F0
:1007A000997480F000000000758201228515822274
:1007B000AA828A15BA00028005BA010A80047582ED
:1007C00001227582012275820122C0E0C082C083AD
:1007D000D2025391EF90E65D7401F0D083D082D0C5
:1007E000E032C0E0C082C083C0D075D00890E07411
:1007F000E02401F0A3E03400F090E074E0FAA3E01C
:10080000FBBA4019BB1F16B2013001067592B8E25F
:1008100080047592B0E290E074E4F0A3F05391EF9D
:1008200090E65D7402F0D0D0D083D082D0E032C0A8
:1008300021C0E0C0F0C082C083C002C003C004C0B9
:1008400005C006C007C000C001C0D075D0007582C9
:10085000001223315391EF90E65D7410F0D0D0D0A8
:1008600001D000D007D006D005D004D003D002D0EC
:1008700083D082D0F0D0E0D02132C021C0E0C0F0DF
:10088000C082C083C002C003C004C005C006C00748
:10089000C000C001C0D075D0007582011223315351
:1008A00091EF90E65D7420F0D0D0D001D000D00759
:1008B000D006D005D004D003D002D083D082D0F0AF
:1008C000D0E0D02132C021C0E0C0F0C082C083C0DF
:1008D00002C003C004C005C006C007C000C001C0FC
:1008E000D075D0005391BF90E6617401F0D28300BF
:1008F0000000000000000090000112252020830865
:10090000758260120991801E75230175823012096B
:100910009190E680E0440AF09005DC12252090E6F4
:1009200080E0FA54F7F0D0D0D001D000D007D00644
:10093000D005D004D003D002D083D082D0F0D0E054
:10094000D02132AA82AB837522018A828B83022551
:1009500076752200228582177516617538167539ED
:1009600000753A40753D17753E00753F407536017C
:10097000E4F537753B03FF09B101E4F53C75822DC1
:10098000021C1685821985831A85F01BE4F51CF577
:100990001DF51EF51FAF187A00C3E51E9FE51F6405
:1009A000808AF063F08095F05055AA1C7B00E51E0C
:1009B0002519FCE51F351AFFAD1B8C828F838DF046
:1009C0001226947D002AF582ED3BF583756CFFE4D9
:1009D000F56D1226B0AA828A1CAB1DE4FCFDEA2B41
:1009E000F582ED3CF583756CFFE4F56D1226B0AA37
:1009F00082AB838A1D051EE4B51E9A051F8096AB47
:100A00001D7A00AC1C7D00EC4AF582ED4BF583228B
:100A100090E6F574FFF090E11AE090E6F3F090E1D3
:100A20001BE090E6C3F090E11CE090E6C1F090E19D
:100A30001DE090E6C2F090E11FE090E6C0F090E18A
:100A400020E090E6F4F075AF077A767BE08B9A7A37
:100A5000767BE07B008A9B759DE4759E007A00BAE8
:100A60008000500C90E67BE0FB90E67CF00A80EF83
:100A700090E0F6E090E6C6F090E0F7E090E6C7F090
:100A800090E0F8E090E6C8F090E0F9E090E6C9F078
:100A900090E0FAE090E6CAF090E0FBE090E6CBF060
:100AA00090E0FCE090E6CCF090E0FDE090E6CDF048
:100AB000227402B52604904100229037002274026D
:100AC000B5260490BF00229008002222AA8290E05E
:100AD000277440F090E0287410F07538287539E0DC
:100AE000753A00753D27753EE0753F00753601E4A7
:100AF000F537753B01E4F53C758254C002121C16B3
:100B000090E028740CF07538287539E0753A007556
:100B10003D27753EE0753F00753601E4F537E4F595
:100B20003BF53C758254121C1675452A7546E075D6
:100B30004700754301E4F544758254121D7590E039
:100B400028740DF07538287539E0753A00753D2721
:100B5000753EE0753F00753601E4F537E4F53BF589
:100B60003C758254121C167545297546E075470080
:100B7000754301E4F544758254121D75D00290E16D
:100B800021EAF090E02774C0F090E0287410F0752E
:100B900038287539E0753A00753D27753EE0753F98
:100BA00000753601E4F537753B01E4F53C75825478
:100BB000C002121C16D0027B0074FFC39AF56CE4CD
:100BC0009BF56D90E029E0FA7B008A828B831224EA
:100BD000A0AB838B0290E02774FFC39AF090E028CB
:100BE0007401F07538287539E0753A00753D277540
:100BF0003EE0753F00753601E4F537753B01E4F5DD
:100C00003C758254021C16AB827A00AC6C7D00EC01
:100C10004202ED4203BA4C3EBB5C3BAC6DAD6E8C08
:100C2000828D83E0FE743F5EFF24EB50125306C0BA
:100C30008C828D83EEF04306148C828D83EEF074EB
:100C4000022CFCE43DFD8C828D83E0FE5306BF8CBC
:100C5000828D83EEF022BA0E34BB58317402256DBA
:100C6000FCE4356EFD8C828D83E0FE5306FC8C82A5
:100C70008D83EEF07401256DFCE4356EFD8C828D64
:100C800083E0FE53061F8C828D83EEF022BA8251E0
:100C9000BB584E856D82856E83A3A3E0FA543F60F6
:100CA0000122856D82856E83A3E0FB7A00AC6DAD79
:100CB0006E8C828D83E07F004202EF42037E007FD4
:100CC00000C3EA9460EB94EAEE9400EF64809480B1
:100CD000500F8C828D837460F08C828D83A374EAB4
:100CE000F0228582F0A2F792B1D2B600C2B600A27D
:100CF000F692B1D2B600C2B600A2F592B1D2B60059
:100D0000C2B600A2F492B1D2B600C2B600A2F3926B
:100D1000B1D2B600C2B600A2F292B1D2B600C2B64B
:100D200000A2F192B1D2B600C2B600A2F092B1D246
:100D3000B600C2B60022A2B292F7D2B600C2B60086
:100D4000A2B292F6D2B600C2B600A2B292F5D2B664
:100D500000C2B600A2B292F4D2B600C2B600A2B2ED
:100D600092F3D2B600C2B600A2B292F2D2B600C2DC
:100D7000B600A2B292F1D2B603FF0DB000C2B60027
:100D8000A2B292F0D2B600C2B60085F082227527D8
:100D90000190E6B9E0FB90E6B8E0FC74805CF528D1
:100DA00090E6BBE0F53190E6BDE0FE8E2D90E6BC0E
:100DB000E0FE8E2E90E6BFE0FF7E0090E6BEE0FAF9
:100DC0007C004EF529EC4FF52ABB0303020E9CBBB9
:100DD0000403020F54BB0503021A41BB0603021AA7
:100DE00071BB0703020FF6BB080302108CBB09039B
:100DF00002108CBB0A03021365BB0B03021365BB15
:100E00000C0302141EBB0D0302141EBB10030215BB
:100E10001EBB1703021154BB1803021173BB190345
:100E2000021234BB1A03021567BB1B03021339BB42
:100E30001C0302130DBB1D030212B4BB1E030211DF
:100E4000EABB3003021587BB31030215A6BB320390
:100E500002162BBB33030218F0BB50030218BCBBB5
:100E60005103021821021A7E90E68BE4F090E6A06E
:100E7000E0FB20E1F8E4F52BF52CC3E52B9529E503
:100E80002C952A5027E52B242BFFE52C34E0FDE59B
:100E90002B2440F582E52C34E7F583E0FB8F828D2F
:100EA00083F0052BE4B52BD2052C80CE7454B531DC
:100EB00048740DB52D03021A92740CB52D03021A55
:100EC000927401B52D0C90E02BE0F582120B040218
:100ED0001A9275382D753900753A40753D2B753E5F
:100EE000E0753F00753601E4F537753B01E4F53CEC
:100EF000853182121C16021A9275382D75390075CB
:100F00003A40753D2B753EE0753F00753601E4F5BE
:100F10003785293B852A3C853182121C16021A929C
:100F20007454B531117401B52D0C90E121E0FB90A2
:100F3000E740F0020FE875382D753900753A4075B5
:100F40003D2B753EE0753F00753601E4F537E4F55D
:100F50003BF53C853182121C16E582FB6017754516
:100F60002B7546E0754700852943852A44853182E3
:100F7000121D75AB82EB6037E4F52BF52CC3E52B26
:100F80009529E52C952A502CE52B2440FFE52C349F
:100F9000E7FDE52B242BF582E52C34E0F583E0FE1C
:100FA0008F828D83F0052BE4B52BD2052C80CEE407
:100FB000F529F52A90E68AE4F090E68BE529F0021F
:100FC0001A92AD2E7E00AA2DE4FF2DFCEA3EFAC354
:100FD00074409529E4952A50067D407E008004AD3A
:100FE00029AE2A755B2B755CE0755D008C578A58BD
:100FF0008D598E5A758251121F90E582FB600C75D7
:101000008220C003120991D003800A758240C00378
:10101000120991D003EB602D7A007C00C3EA952978
:10102000EC952A5025EA2440FDEC34E7FEEA242B17
:10103000F582EC34E0F583E0FF8D828E83F00ABA0E
:1010400000DA0C80D7E4F529F52A90E68AE4F090DE
:10105000E68BE529F0021A9290E6BAE0F53190E6C7
:10106000BCE0FA8A2DE528605390E02BE4F090E094
:101070002CF090E02DF075382D753900753A4075DB
:101080003D2B753EE0753F00753601E4F537E4F51C
:101090003BF53C853182121C167545407546E77557
:1010A0004700754303E4F544853182121D7590E6CF
:1010B0008AE4F090E68B7403F0021A9290E68BE4D7
:1010C000F090E6A0E0FA20E1F890E740E090E02B15
:1010D000F090E741E090E02CF090E742E090E02DC6
:1010E000F0852D6C756D2B756EE0853182120C3F8D
:1010F00075382D753900753A40753D2B753EE07594
:101100003F00753601E4F537753B03E4F53C853166
:1011100082121C1690E68AE4F090E68BF0021A9296
:1011200075121075821E12048175B08075B5CFD20C
:10113000B390E68AE4F090E68BE529F0021A9290EB
:10114000E6BCE0FA8A3490E6BBE0FA8A3390E6BA6D
:10115000E0FA8A3290E68BE4F090E6A0E0FA20E133
:10116000F8D2B000C2B000C2B600C2B2758202129C
:101170000D1A853482120D1A85338203FF11AF12C6
:101180000D1A853282120D1A7A007C00C3EA952965
:10119000EC952A501FEA2440F582EC34E7F583E011
:1011A000F582C002C004120D1AD004D0020ABA009F
:1011B000DB0C80D8D2B000021A9290E68BE4F0905B
:1011C000E6A0E0FA20E1F8D2B000C2B000C2B6005A
:1011D000C2B27A007C00C3EA9529EC952A501FEA36
:1011E0002440F582EC34E7F583E0F582C002C004C8
:1011F000120D1AD004D0020ABA00DB0C80D8D2B08B
:1012000000021A9290E6BCE0FA8A3490E6BBE0FA5B
:101210008A3390E6BAE0FA8A32D2B000C2B000C295
:10122000B600C2B2758203120D1A853482120D1AED
:10123000853382120D1A853282120D1A7A007C00D3
:10124000C3EA9529EC952A502AEA2440FDEC34E7BC
:10125000FEC002C004C005C006120D6EAF82D006EB
:10126000D005D004D0028D828E83EFF00ABA00D070
:101270000C80CDD2B00090E68AE4F090E68BE529B0
:10128000F0021A92D2B000C2B000C2B600C2B2756B
:10129000829F120D1A7A007C00C3EA9403EC94003A
:1012A000502AEA2440FDEC34E7FEC002C004C00529
:1012B000C006120D6EAF82D006D005D004D0028DCC
:1012C000828E83EFF00ABA00D00C80CDD2B00090AD
:1012D000E68AE4F090E68BE529F0021A92D2B0009B
:1012E000C2B000C2B600C2B2758235120D1A120D1C
:1012F0006EAA8290E740EAF0D2B00090E68AE4F06D
:1013000090E68BE529F0021A92D2B000C2B000C27A
:10131000B600C2B2758205120D1A120D6EAA829025
:10132000E740EAF0D2B00090E68AE4F090E68BE580
:1013300029F0021A9290E6BAE0F53190E6BCE0FAA4
:101340008A2DE528605390E02BE4F090E02CF0909B
:10135000E02DF075382D753900753A40753D2B75C7
:101360003EE0753F00753601E4F537E4F53BF53CAA
:10137000853182121C167545407546E77547007524
:101380004302E4F544853182121D7590E68AE4F04B
:1013900090E68B7402F0021A9290E68BE4F090E6ED
:1013A000A0E0FA20E1F890E740E090E02BF090E731
:1013B00041E090E02CF090E742E090E02DF07538AD
:1013C0002D753900753A40753D2B753EE0753F002F
:1013D000753601E4F537753B02E4F53C8531821240
:1013E0001C1690E68AE4F090E68BF0021A9290E6E2
:1013F000BAE0F53190E6BCE0FA8A2DE5286060900D
:10140000E02BE4F07454B531107401B52D0B90E16C
:1014100021E0FA90E740F0803875382D7539007575
:101420003A40753D2B753EE0753F00753601E4F599
:1014300037E4F53BF53C853182121C167545407545
:1014400046E7754700754301E4F544853182121D76
:101450007590E68AE4F090E68B7401F0021A92909F
:10146000E68BE4F090E6A0E0FA20E1F890E740E0B7
:10147000FA90E02BF07454B53144740DB52D028010
:1014800061740CB52D02805A7401B52D0B90E02BC0
:10149000E0F582120B04804A75382D753900753AD3
:1014A00040753D2B753EE0753F00753601E4F5371C
:1014B000753B01E4F53C853182121C168024753899
:1014C0002D753900753A40753D2B753EE0753F002E
:1014D000753601E4F537753B01E4F53C8531821240
:1014E0001C1690E68AE4F090E68BF0021A92E5284A
:1014F000602390E603E0FABA0F0890E7407401F029
:10150000800590E740E4F090E68AE4F090E68B7482
:1015100001F0021A9290E6BAE0FABA010890E603E6
:10152000740FF0800690E603740BF090E68AE4F006
:1015300090E68BF0021A92E5287003021A9290E767
:1015400040E4F090E7417411F090E68AE4F090E610
:101550008B7402F0021A92E5287003021A9290E747
:1015600040E526F090E741E4F090E68AF090E68BC3
:101570007402F0021A92E5287003021A927403FFB3
:1015800015AE01B5263490E6BCE0FABA011690E734
:1015900040E4F090E7417440F090E742E4F090E7D7
:1015A00043F0804D90E740E4F090E7417408F090FC
:1015B000E742E4F090E743F080377402B5263290BA
:1015C000E6BCE0FABA011690E740E4F090E741F09B
:1015D00090E7427401F090E743E4F0801490E74014
:1015E000E4F090E74174BFF090E742E4F090E74305
:1015F000F090E68AE4F090E68B7404F0021A92E52B
:101600002870030216B9755B35755C00755D407511
:1016100057D075583F755901E4F55A758251121F1C
:1016200090E535600574FFB5350375351685355978
:10163000755A00755B2B755CE0755D007557E0753C
:10164000583F758251121F90E582FB602F7A007B14
:1016500000AC357D00C3EA9CEB9D5023EA2440FC9E
:10166000EB34E7FDEA242BF582EB34E0F583E0FE72
:101670008C828D83F00ABA00D80B80D57535009026
:10168000E68AE4F090E68BE535F0021A9290E68B5C
:10169000E4F090E6A0E0FA20E1F8C374209529E494
:1016A000952A5006752920E4F52AAA2990E02BEA0C
:1016B000F07A007B00C3EA9529EB952A50238A042F
:1016C000EC04242BFCE434E0FDEA2440F582EB3406
:1016D000E7F583E0FE8C828D83F00ABA00D70B8099
:1016E000D4AA29AB2AC3EA9420EB940050168A04AA
:1016F000EC04242BF582E434E0F583E4F00ABA002C
:10170000E40B80E1752D3F752ED075382D753900AD
:10171000753A40753D2B753EE0753F00753602E425
:10172000F537753B01E4F53C758251121C169000AB
:101730000A122520752D3F752EE075382D7539005C
:10174000753A40753D2C753EE0753F00753602E4F4
:10175000F537753B20E4F53C758251121C1690005C
:101760000A122520E52904F51890E02B75F00012E7
:1017700009BBAA82AB838A047D008B027B00EA2C22
:10178000F582EB3DF583756CFFE4F56DC004C00593
:101790001224BFAA82D005D00474FFC39AFA90E045
:1017A0004CF07B00EA2CF582EB3DF583756CFFE491
:1017B000F56D1224BFAA8274FFC39A90E04DF075B4
:1017C0002D3F752EDE75382D753900753A40753D03
:1017D0004C753EE0753F00753602E4F537753B0207
:1017E000E4F53C758251121C1690E68AE4F090E60E
:1017F0008BF0021A9290E6BCE0FA8A2DE528604B45
:1018000090E02BE4F075382D753900753A40753D40
:101810002B753EE0753F00753601E4F537E4F53B86
:10182000F53C758254121C167545407546E77547A0
:1018300000754301E4F544758254121D7590E68AE3
:10184000E4F090E68B7401F0021A9290E68BE4F0DB
:1018500090E6A0E0FA20E1F890E740E090E02BF07D
:1018600075382D753900753A40753D2B753EE0751C
:101870003F00753601E4F537753B01E4F53C7582B0
:1018800054121C1690E68AE4F090E68BF0021A924D
:10189000E5287003021A9290E6BBE0FA90E6BAE0FF
:1018A0008AF0A4FAACF08A037D0090E740EBF08C5C
:1018B0000290E741EAF090E68AE4F090E68B740249
:1018C000F0021A92E5287003021979120AE9AA8235
:1018D000AB83AC2E7D00EC2AFAED3BFBAD2DE42A68
:1018E000FAED3BFBAC29AD2AEC4D7003021A92C312
:1018F000EC9440ED940050048C0680027E4090E60B
:10190000A0E0FF20E1F88E59755A00755B40755CC8
:10191000E7755D008A578B58758251C002C003C0BD
:1019200004C005C006121F90D006D005D004D00315
:10193000D00290E68AE4F090E68BEEF07F00EE2A8B
:10194000FAEF3BFBECC39EFCED9FFD809B90E68B8A
:10195000E4F090E6A0E0FA20E1F8C374409529E4B1
:10196000952A5006752940E4F52A7A007B00C3EADF
:101970009529EB952A5020EA242BFCEB34E0FDEA74
:101980002403FF19AD40F582EB34E7F583E0FE8CCC
:10199000828D83F00ABA00DA0B80D790E6BDE0FAB8
:1019A0008A2D90E6BCE0FA8A2EAB2D7A00AC2E7D13
:1019B00000EC4202ED4203E5292AFAE52A3BFBC08E
:1019C00002C003120AF6AC82AD83D003D002C3EC8E
:1019D0009AED9B4039AA2DC002120AE9AC83D002CD
:1019E000EC2AF52D75382D753900753A40753D2B6B
:1019F000753EE0753F00753602E4F53785293B8575
:101A00002A3C758251121C1690000512252090E682
:101A10008AE4F090E68BF0805190E68BE4F090E65B
:101A2000A0E0FA20E1F890E743E090E6CEF090E7FE
:101A300042E090E6CFF090E741E090E6D0F090E70A
:101A400040E0FA90E6D1F0802190E68AE4F090E65A
:101A50008B7404F0801475270090E6A0E0FA44012E
:101A6000F090E68AE4F090E68BF0E527600890E6D7
:101A7000A0E0FA4480F085278222E582FA60030222
:101A80001B2190E60174F2F000000000120A489059
:101A9000E612E0FB547FF00000000090E613E0FB4C
:101AA000547FF00000000090E615E0FB547FF0004A
:101AB00000000090E61474A2F00000000090E6041C
:101AC0007480F00000000090E6047406F00000004E
:101AD0000090E604E4F00000000090E6497486F00F
:101AE0000000000090E6497486F00000000090E6D7
:101AF0001A7411F00000000022BA01028001229045
:101B0000E6017413F00000000090E609742CF00068
:101B100000000090E614E0FA547FF000000000900E
:101B2000E613E0FA547FF00000000090E61574928E
:101B3000F00000000090E61274E0F0000000009059
:101B4000E6047480F00000000090E6047402F000E7
:101B500000000090E6047408F00000000090E60425
:101B6000E4F00000000090E619E0FA54FEF00000F6
:101B7000000090E61AE0FA54FEF00000000090E643
:101B80001BE0FA54FEF00000000090E618744CF0E0
:101B90000000000090E6207402F00000000090E6D3
:101BA00021E4F00000000090E6267402F00000003E
:101BB0000090E627E4F00000000090E6407401F099
:101BC00090E63074C3F00000000090E63174E6F057
:101BD0000000000090E60274CCF00000000090E6E7
:101BE00003740FF075821002099132323232AA82E8
:101BF000E53B2536F540E53C3537F54190E06BE4B3
:101C0000F0EA2AFA75420290E06BE0FE6004758209
:101C1000002290E678E04480F090E678E0FE20E252
:101C2000E690E679EAF090E678E0FE20E00790E0C2
:101C30006BE0FE60F190E06BE0FE600475820022D4
:101C400090E678E0FE20E2BF90E678E0FE20E13604
:101C500090E678E0FE4440F090E678E0FE30E6075B
:101C600090E06BE0FE60F190E06BE0FE6004758256
:101C70000022D5420475820022900001C002122584
:101C800020D002021C2F7E007F00C3EE9540EF950E
:101C9000414003021D4FC3EE9536EF95375016EEC7
:101CA0002538F8EF3539F9AD3A888289838DF012FD
:101CB0002694FD801DEEC39536F8EF9537F9E8259B
:101CC0003DF8E9353EF9AB3F888289838BF01226D7
:101CD00094FD90E679EDF00EBE00010F90E678E0FD
:101CE000FB20E00790E06BE0FB60F190E06BE0FB35
:101CF00060047582002290E678E0FB30E203021C6B
:101D00002F90E678E0FB30E103021CB290E678E029
:101D1000FA4440F090E678E0FA30E60790E06BE0B5
:101D2000FA60F17582002290E678E0FA4440F09083
:101D3000E678E0FA30E60790E06BE0FA60F190E0D8
:101D40006BE0FA60047582002275820122AA8290FB
:101D5000E06BE4F0EA2AFA4302017401B54308E4B7
:101D6000B5440474018001E4FB90E06BE0FC600486
:101D7000758200227C007D0090E678E04480F0903F
:101D8000E678E0FE03FF1DAC30E21090000AC002CE
:101D9000C003122520D003D00280D290E679EAF069
:101DA00090E678E0FE20E00790E06BE0FE60F190C6
:101DB000E06BE0FE60047582002290E678E0FE2091
:101DC000E2AB90E678E0FE20E11B90E678E0FE448E
:101DD00040F090E678E0FE30E60790E06BE0FE60D1
:101DE000F175820022EB600890E678E0FE4420F076
:101DF00090E679E0E4F548F54974012548F8E435C2
:101E000049F9C3E89543E99544506990E678E0F8CC
:101E100020E00790E06BE0F860F190E06BE0F860A4
:101E2000047582002290E678E0F830E203021D910A
:101E300074022548F8E43549F9E8B5430CE9B5449E
:101E40000890E678E0F84420F0A848A9490548E45D
:101E5000B548020549AC48AD49E82545F8E935469D
:101E6000F9AE4790E679E0FF888289838EF01224EC
:101E700086021E1D90E678E0FE20E00790E06BE011
:101E8000FE60F190E06BE0FE60047582002290E657
:101E900078E0FE30E203021D9190E678E04440F0E5
:101EA000EC2545FCED3546FDAA4790E679E0FB8C34
:101EB000828D838AF012248690E678E0FA30E60775
:101EC00090E06BE0FA60F190E06BE0FA60047582FC
:101ED000002275820122858251E4F555F556AD4AFE
:101EE000AE4BC3E555954CE556954D4003021F8C0E
:101EF0007F0090E678E0FA30E4067F018E028A5295
:101F00008F020FEA2452F88D02A6028F020FEA24F4
:101F100052F8AA55AB560555E4B555020556EA25C3
:101F20004EFAEB354FFBAC508A828B838CF0122635
:101F300094F68F36753700753852753900753A400A
:101F4000E4F53BF53CF53DF53EF53F855182C00596
:101F5000C006121C16E582D006D0057003F5822259
:101F60000DBD00010E021F0675820122AA827B00B0
:101F700090E678E0FC30E4067B01AC588C5E8B0484
:101F80000BEC245EF8AC57A6048B36753700753819
:101F90005E753900753A40E4F53BF53CF53DF53E9C
:101FA000F53F8A82C002121C16E582D0027003F54A
:101FB0008222855943855A44855B45855C46855D0B
:101FC000478A82121D75E5827003F58222758201AF
:101FD000223232323275600122756000227A01901D
:101FE000E6B8E0FB5303F0BB80028003022140907F
:101FF000E6B9E0FB24F45003022134EB2B2B9020B4
:10200000267302204A02206302213402207C02212E
:102010003402213402209502213402209F0220BB89
:102020000220DA022112C0021221CFE582D0026022
:102030000302216C90E6A0E0FB4401F002216CC099
:102040000212225BE582D002600302216C90E6A0BE
:10205000E0FB4401F002216CC0021222A9E582D00B
:1020600002600302216C90E6A0E0FB4401F0022133
:102070006CC002122382D00202216CC0021207E857
:10208000AB82D00290E740EBF090E68AE4F090E675
:102090008B7401F002216C90E6BAE0F582C0021266
:1020A00007ECE582D002600302216C90E6A0E0FB21
:1020B0004401F002216C90E6BCE0FB756C61756D2B
:1020C00000756E408B82C0021206EBE582D0027072
:1020D0000A90E6A0E0FB4401F0806D90E740E561E6
:1020E000F090E68AE4F090E68B7401F0805A90E676
:1020F000BCE0FB90E6BAE0F56C8B82C002120718D8
:10210000E582D002704290E6A0E0FB4401F0803806
:102110007A0090E6A0E0FB4401F0802C90E6B8E065
:10212000FB30E509C002120B03D002801B90E6B819
:10213000E0FB30E61390E6B9E0F582C002120DC272
:10214000E582D00260027A00EA600890E6A0E0FA38
:102150004480F022AA82747F5AFB24F74049EB2B7B
:102160002B902189730221A40221A80221BB022104
:10217000CB0221BF0221CB0221C30221CB0221C706
:1021800090E6A022EA30E703FF21AB067AA27BE6C5
:1021900080047AA17BE68A828B832290E6A3229038
:1021A000E6A42290E6A52290E6A6229000002290C6
:1021B000E6B8E0FABA80028022BA81028008BA82C8
:1021C00002803702225390E740E4F090E741F0901C
:1021D000E68AF090E68B7402F0805CE56325E0FA15
:1021E000E562420290E740EAF090E741E4F090E6D1
:1021F0008AF090E68B7402F0803D90E6BCE0F582B8
:10220000122178AA82AB83EA4B7003F582228A827C
:102210008B83E0FA30E0047A0180027A0090E74094
:10222000EAF090E741E4F090E68AF090E68B7402E1
:10223000F08004758200227582012290E6B8E0FAEF
:102240006005BA0237801190E6BAE0FABA01057566
:10225000630080317582002290E6BAE0701A90E641
:10226000BCE0F582122178AA82AB83E0FC5304FE25
:102270008A828B83ECF0800D7582002290E6B9E0B3
:10228000F582020DC27582012290E6B8E0FA60087C
:10229000BA0202801F02232490E6BAE0FABA0203CF
:1022A00002232D90E6BAE0FABA0105756301805D5C
:1022B0007582002290E6BAE0704690E6BCE0F582B6
:1022C000122178AA82AB83EA4B7003F582228A82BC
:1022D0008B83E0FC4304018A828B83ECF090E6BCA4
:1022E000E0FA53020F90E6BCE05480C423541FFB75
:1022F00090E683EB2AF090E683E0FA4420F0800D2C
:102300007582002290E6B9E0F582020DC275820165
:1023100022AA82D20310AF02C203EA60217401B57F
:10232000230E75642675653975661C756739802DB1
:102330007564AC75653B7566C675673B801F740137
:10234000B5230E75641C7565397566267567398009
:102350000C7564C675653B7566AC75673BA20392E8
:10236000AF2290E6BBE0FABA01028019BA020280FD
:102370003FBA03028048BA0603022442BA070302A6
:10238000246D02247B7401B523137A007B3990E617
:10239000B3EBF07A007B3990E6B4EAF0227A907BD6
:1023A0003B90E6B3EBF07A907B3B90E6B4EAF02208
:1023B00090E6B3E565F0AA6490E6B4EAF0227A2AE2
:1023C0007B3B7C8090E6BAE0FD7E008E070EEDB58B
:1023D000070280368A828B838CF01226942AFAE4D4
:1023E0003BFB74012AFFE43BF88C018F82888389D0
:1023F000F0122694FFBF030280067A007B007C0067
:10240000EA4B4C6005C3ED9E50C1EA4B4C600B900B
:10241000E6B3EBF090E6B4EAF02290E6A0E04401E7
:10242000F0227401B523137A127B3990E6B3EBF0F6
:102430007A127B3990E6B4EAF0227AA27B3B90E6EE
:10244000B3EBF07AA27B3B90E6B4EAF02290E6B3DD
:10245000E567F0AA6690E6B4EAF02290E6A0E044D0
:1024600001F02232323220F71030F6118883A88230
:1024700020F507F6A88375830022F280F7F0223258
:10248000E582856CF0A4C582C0F0856DF0A4D0F023
:1024900025F0C583856CF0A42583F583223232E5CF
:1024A0006C456D60467A01E56C25E0F56CE56D33B1
:1024B0004012F56DE582956CE583956D40030A80C9
:1024C000E6C3E56D13F56DE56C13F56CC3E5829518
:1024D0006CF5F0E583956D4005F58385F082C3E5E5
:1024E0006D13F56DE56C13F56CDAE12232323232A0
:1024F00032323232323232323232323232323232BC
:10250000AA82AB8390E600E05418C423541FFCB4A5
:102510000100E433FC60067CB17D00801C90E60085
:10252000E05418C423541FFEBE01067E617F018063
:10253000047EC27F028E048F058C6C8D6D156C74C9
:10254000FFB56C02156DE56C456D70F11ABAFF01AF
:102550001BEA4B70E422AA82AB838A688B69538999
:10256000F090E600E05418C423541FFC6008BC023D
:1025700002806602266874FF2B502F4389018A046B
:102580008B05E4FEFFC39CFCE49D01F725AAFD74C6
:10259000019EFEE49FFF8C028D038A047D008C6AFD
:1025A0008B6B856A8A856B8C538EF702266843890C
:1025B00002758A00C3EA9456EB9400400D8A04C366
:1025C000E49CF58C538EF70226688A04EC75F003C0
:1025D000A4FCC3E49CF58C438E08022668C3EA94ED
:1025E00040EB940040384389018A04EBCC25E0CCD1
:1025F00033CC25E0CC33FDE4FEFFC39CFCE49DFD21
:1026000074019EFEE49FFF8C028D038A047D008C82
:102610006A8B6B856A8A856B8C538EF7802E438913
:1026200002758A00C3EA9415EB940040118A04EC09
:102630002C25E0FCC3E49CF58C538EF7800EEA75E4
:10264000F00CA4FAC3E49AF58C438E08D28CD2A97C
:1026500022E568456970012290E600E05418C42321
:10266000541FFA6002800C74FF25695006856A8A3F
:10267000856B8C02098D323220F71430F614888372
:10268000A88220F507E6A88375830022E280F7E49C
:102690009322E022C2D5E58330E70DD2D5E4C3957D
:1026A00082F582E49583F583E56D30E70BE4C3950D
:1026B0006CF56CE4956DF56D1224BF30D50BE4C359
:1026C0009582F582E49583F583223275820022E0BB
:1026D000D02C0001020304000001010101010101ED
:1026E00007000000000000000000000000000000E3
:1026F00000000000000000003F0101010101010194
:1027000007000000000000000000000000000000C2
:1027100000000000000000003F0101010101010173
:1027200007000000000000000000000000000000A2
:1027300000000000000000003F0101010101010153
:10274000070202060202020200000400000000006C
:1027500000000000000000003F000000000000003A
:102760000000000000000000000000000000000069
:1027700000000000000000000000000000A01000A9
:1027800000EE4E008002C5390012010002EF020186
:1027900040510406910000010203010A060002EF05
:1027A0000201400100090209000001008032000915
:1027B00002040202010080FA080B00020E0300006E
:1027C00009040000000E0100020D24010001500068
:1027D000006CDC0201011224020101020000000071
:1027E00000000000030000000C240502010040036B
:1027F000000000001C240603DD880F8A1CBA49541F
:102800008A25F7875967F0F70A010203FF030001E1
:1028100009240304010100030009040100000E0261
:1028200000000E24010147008200040000000100A6
:102830001B2404010B595559320000100080000080
:10284000AA00389B711001000000001E2405010041
:10285000C003E001000065040000650400100E00E4
:10286000D012130001D01213001E240502008002B2
:10287000F0000080A9030080A90300B00400801AC2
:10288000060001801A06001E240503008002E001F4
:102890000080A9030080A9030060090000350C0036
:1028A0000100350C0022240504004001F0000080E6
:1028B00032020080A90300580200151605000240EC
:1028C0000D030015160500222405050040017800BF
:1028D000004019010080A903002C01001516050015
:1028E00002A0860100151605001E24050600A000A2
:1028F000780000A08C0000A08C0000960000151647
:10290000050001151605001E24050700A0003C0067
:102910000050460000504600004B00001516050010
:1029200001204E00001E2405080050003C00002835
:10293000230000282300802500001516050001153E
:102940001605001E2405090050001E000094110009
:1029500000941100C012000015160500011516059F
:10296000001E24050A0028001E0000CA080000CA34
:102970000800600900001516050001151605001E67
:1029800024050B008C01840100CA080000CA08005D
:1029900060B00400801A060001801A060006240DAB
:1029A00001010409040101010E020000070582056E
:1029B00000040104030904060354004900180343FA
:1029C0000044004B002D004F0050005400380032EE
:1029D00000340031002E035300650072006900616D
:1029E000006C005F004E006F002E005F0050006C16
:1029F0000061006300650068006F006C00640065A2
:102A00000072000000000000000000000000000054
:102A100000000000000000000012010002000000A1
:102A200040510405910100010203010A0600020061
:102A30000000400100090219000101008032090470
:102A400000000100000002070582020002000019D8
:102A50003BC609021900010100803209040000028E
:102A6000000000020705820200020000023BE000B5
:102A70000000B83F000208060002081E00021C15F4
:102A8000000224830002086B000208B600021C1238
:102A90000002251500022516000225170002251840
:102AA0000002251B000224850002249F000224BD91
:102AB000000224BE00021FF600022515000226E6D1
:102AC00000021C1300021C1400021FF500021FF775
:102AD00000021FF8000226930002251500022515AA
:102AE0000002251500022514000225190002251CEC
:102AF0000002251E0002251A0002251D0002251FC6
:102B0000000226920002250C0002250E000225106C
:102B1000000225120002250D0002250F00022511DA
:102B2000000225130002090100022484008001E64E
:022B30000000A3
:00000001FF
